:100000000C944C000C946C000C946C000C946C00E0
:100010000C946C000C946C000C946C000C946C00B0
:100020000C946C000C946C000C946C000C946C00A0
:100030000C946C000C946C000C946C000C946C0090
:100040000C946C000C946C000C946C000C946C0080
:100050000C946C000C946C000C946C000C946C0070
:100060000C946C000C946C000C946C000C946C0060
:100070000C946C000C946C000C946C000C946C0050
:100080000C946C000C946C000C946C000C946C0040
:100090000C946C000C946C0011241FBECFEFD0E2C6
:1000A000DEBFCDBF11E0A0E0B1E0EEE2F2E000E0A3
:1000B0000BBF02C007900D92A030B107D9F71BBE4D
:1000C0001BE3A0E0B1E001C01D92AA39B107E1F73E
:1000D0000E9409010C9415010C94000011B884B120
:1000E000876084B92398259A8FEF87B9539A5298DD
:1000F000089580E98CBD81E08DBD0895E0E8F0E0D1
:1001000010828081806C8083E1E8F0E080818860EB
:1001100080838081887F808380818260808380E289
:1001200080936F0008958EBD0DB407FEFDCF089536
:100130000F931F93CF93DF9300D0CDB7DEB72898EE
:1001400069837A830E9493006981062F7A81172F31
:1001500002C00E949300F80181918F018823C9F7A2
:10016000289A0F900F90DF91CF911F910F910895D2
:1001700031E62FEF17C021934150E9F7FC01799642
:1001800048E121934150E9F7FC01F19649E12193BF
:100190004150E9F7FC01E65BFF4F1082855B9F4F02
:1001A000315019F0FC0149E1E6CF0895E1E8F0E0B3
:1001B0008081826080838AE18A95F1F700C085E3BF
:1001C0008A95F1F70000889A8C9A8B9A8AE18A9531
:1001D000F1F700C08B988AE18A95F1F700C08B9AFD
:1001E0008AE18A95F1F700C00895FFCF80E764E0C7
:1001F00070E00E94980085E38A95F1F7000082E79D
:1002000063E070E00E94980085E38A95F1F70000B2
:1002100008950E946E000E9479000E947E008091E5
:0E0220008100887F80938100FFCFF894FFCF8C
:00000001FF
