:1000000045C0000061C000005FC000005DC000008E
:100010005BC0000059C0000057C0000055C0000080
:1000200053C0000051C000004FC000004DC0000090
:1000300067C0000049C0000047C0000045C0000084
:1000400043C0000041C000003FC000003DC00000B0
:100050003BC0000039C0000037C0000035C00000C0
:1000600033C0000031C000002FC000002DC00000D0
:100070002BC0000029C0000027C0000025C00000E0
:1000800023C0000021C000001FC0000011241FBEBB
:10009000CFEFD0E1DEBFCDBF11E0A0E0B1E0E4E5FD
:1000A000F7E000E00BBF02C007900D92A238B10745
:1000B000D9F71BBE11E0A2E8B1E001C01D92A33840
:1000C000B107E1F729D044C39BCF1ABA87B3876041
:1000D00087BBBB98BF98BD9ABC9ABE9A8FEF84BB72
:1000E0008B9A8A98149A119A089580E48FBD89E0BA
:1000F0008EBD88E290E09BBD8ABD80E187BF0895F8
:100100001F920F920FB60F9211241DBC1CBC0F90B2
:100110000FBE0F901F901895D8DFFAD0E6DF60E091
:1001200076E980E090E0AFD0C79A8FE39CE9019731
:10013000F1F700C0000080E091E060E1CCD08EB526
:10014000887F8EBD78941092820106E014E0D3E09F
:10015000C1E080918201833018F4813078F407C0C7
:100160008430A1F0843070F08630A9F786C081E138
:1001700091E063E1B0D0C0938201EBCF40D1D09346
:100180008201E7CF6FD110938201E3CF8FEF49D285
:100190008FEF93ECA9E081509040A040E1F700C0C0
:1001A00000008FEF93ECA9E081509040A040E1F770
:1001B00000C000008FEF97EEA3E081509040A04078
:1001C000E1F700C000008FEF2CD28FEF93ECA9E095
:1001D00081509040A040E1F700C000008FEF93EC09
:1001E000A9E081509040A040E1F700C000008FEFEF
:1001F00097EEA3E081509040A040E1F700C00000DE
:100200008AEA0FD28FEF93ECA9E081509040A04092
:10021000E1F700C000008FEF93ECA9E0815090401F
:10022000A040E1F700C000008FEF97EEA3E08150FF
:100230009040A040E1F700C000008AEAF2D18FEFC1
:1002400093ECA9E081509040A040E1F700C000008D
:100250008FEF93ECA9E081509040A040E1F700C0FF
:1002600000008FEF97EEA3E081509040A040E1F7AF
:1002700000C00000009382016CCF85E291E064E051
:100280002AD0E0D1FFCF0F931F939B01AC0182E0F6
:1002900080939B0088E180939A0086E080939D0084
:1002A00060E079E08DE390E031D289019A0101505C
:1002B00010402040304036952795179507950093BC
:1002C00099001F910F91089590919B0095FFFCCF8D
:1002D00080939C000895EF92FF921F93CF93DF933A
:1002E0000F92CDB7DEB7182FE82EF92E06C0F70112
:1002F00081917F016983E8DF69818E2D811B8617DB
:10030000B0F30F90DF91CF911F91FF90EF90089580
:1003100080E58DB981E08EB908958FB9779BFECFC6
:100320000895EF92FF921F93CF93DF930F92CDB773
:10033000DEB7182FE82EF92E06C0F70181917F0154
:100340006983EBDF69818E2D811B8617B0F30F90D7
:10035000DF91CF911F91FF90EF90089585E08A95EE
:10036000F1F7000086B380780895CF93DF93C82F0C
:10037000D62FF4DF8823E9F7C09A85E38A95F1F751
:100380000000C09880E7C9DF8C2FC7DFE7DF882334
:10039000E9F7C09A85E38A95F1F70000C09882E7F3
:1003A000BCDF8D2FBADFC09ADF91CF9108950F93F4
:1003B0001F93CF93DF93182FEB01042FCFDF8823F8
:1003C000E9F7C09A85E38A95F1F70000C09880E7C5
:1003D000A4DF812FA2DFC2DF8823E9F7C09A85E37B
:1003E0008A95F1F70000C09882E797DFCE01602F71
:1003F00098DFC09ADF91CF911F910F9108958AE203
:1004000091E06DE068DF1C98C6981998C498C09870
:10041000C198C2988EB581608EBD8FE19EE4019730
:10042000F1F700C00000C09A8FE39CE90197F1F753
:1004300000C00000C09AC49A1C9A8FE19EE4019704
:10044000F1F700C000001C988FE19EE40197F1F7DE
:1004500000C000001C9A8FE19EE40197F1F700C0F4
:1004600000000895CF93DF93CDB7DEB72A970FB67C
:10047000F894DEBF0FBECDBF88E391E069E02BDFCB
:100480001B821C821D821E8281E08F838FEF8887F2
:1004900080EE89871A8680ED89831A8282E491E052
:1004A00065E019DF5BDF8823E9F788E491E069E024
:1004B00012DF81E0BE016D5F7F4F48E078DF86E0AC
:1004C0006FEF53DF87E06DE950DF88E060E04DDFDC
:1004D00089E0BE016F5F7F4F42E069DF84E063E047
:1004E00044DF8FE19EE40197F1F700C0000083E054
:1004F00061E03BDF83E060E038DF85E061E035DF2D
:100500008FEF96E7A1E081509040A040E1F700C056
:1005100000008EB5887F8EBDC59885E063E025DF3D
:100520008FEF96E7A1E081509040A040E1F700C036
:10053000000085E06FE019DF8FEF96E7A1E08150C2
:100540009040A040E1F700C0000082E064E20DDFCF
:1005500082E591E06AE0BFDE2A960FB6F894DEBF2E
:100560000FBECDBFDF91CF9108950F931F93CF930F
:10057000DF93D82FC62F84E063E0F7DEEFDE882319
:10058000E9F7C09A85E38A95F1F70000C09880E703
:10059000C4DE8AE0C2DEE2DE8823E9F7C09A85E3A2
:1005A0008A95F1F70000C09882E7B7DE19E1D6DE40
:1005B0008823E9F78C2FB1DE1150C9F70D2F06956E
:1005C00006952D2F30E023703070220F331F40EC42
:1005D00050E002C0559547952A95E2F7142FD0E0D8
:1005E000BDDE8823E9F70D1711F4812F96DE80E038
:1005F00094DEDF5FD931A1F7B1DE8823E9F78C2FD4
:100600008CDED150C9F780E088DEC09AA7DE88234F
:10061000E9F782E06FE2A9DEDF91CF911F910F91A0
:100620000895CF93DF93C82F8DE691E064E153DE08
:10063000D0E08D2F6C2F99DFDF5FD036D1F7DF91BF
:10064000CF91089585E5EDDF8FEF65E58EDF8FE7CC
:1006500098E3A1E081509040A040E1F700C0000085
:10066000C4988FEF94E3ACE081509040A040E1F754
:1006700000C00000C49A83E061E077DE82E065E0BC
:1006800074DE85E06EE071DE85E062E06EDE84E0BF
:100690006CE06BDE8FE79AE1A6E081509040A040CD
:1006A000E1F700C0000085E060E05FDE87E06DE01C
:1006B0005CDE84E060E559DE8FEF93EFA1E08150CE
:1006C0009040A040E1F700C0000084E060EA4DDE09
:1006D0008FEF93EFA1E081509040A040E1F700C080
:1006E000000084E060E041DE1C98C698C498C19880
:1006F000C298C098199A8FEF92E5A7E08150904078
:10070000A040E1F700C0000019980895A1E21A2E58
:10071000AA1BBB1BFD010DC0AA1FBB1FEE1FFF1FA5
:10072000A217B307E407F50720F0A21BB30BE40BF5
:10073000F50B661F771F881F991F1A9469F760953C
:100740007095809590959B01AC01BD01CF010895F6
:04075000F894FFCF4B
:1007540053595354454D205354415254494E470A1A
:10076400007374617465203D204352454154455FD4
:10077400494D470A006F66660A00737461727420FB
:10078400757020434F470A00434F4720696E6974D0
:100794000A00627573790A006E6F7420627573794A
:1007A4000A00696E697420646F6E650A0077726965
:1007B40074696E6720746F20434F470A007772692B
:1007C40074696E6720666978656420696D61676520
:0207D4000A0019
:00000001FF
