:100000000C944C000C945E000C945E000C945E000A
:100010000C945E000C945E000C945E000C945E00E8
:100020000C945E000C945E000C945E000C945E00D8
:100030000C945E000C945E000C945E000C945E00C8
:100040000C945E000C945E000C945E000C945E00B8
:100050000C945E000C945E000C945E000C945E00A8
:100060000C945E000C945E000C945E000C945E0098
:100070000C945E000C945E000C945E000C945E0088
:100080000C945E000C945E000C945E000C945E0078
:100090000C945E000C945E0011241FBECFEFD0E2E2
:1000A000DEBFCDBF2BE3A0E0B1E001C01D92AA39B5
:1000B000B207E1F70E9450010C945C010C9400001F
:1000C00011B884B1876084B92398259A8FEF87B9D6
:1000D000539A5298089580E98CBD81E08DBD0895B2
:1000E00080EC80938000E1E8F0E088E0808380810C
:1000F000887F80838081826080838AE090E0909313
:1001000089008093880082E080936F0008958EBDFF
:100110000DB407FEFDCF0895EF92FF921F93CF938A
:10012000DF931F92CDB7DEB7182FE82EF92E07C048
:10013000F70181917F0169830E94870069818E2D7B
:10014000811B8617A8F30F90DF91CF911F91FF902D
:10015000EF90089585B1807808951F93CF93DF9332
:100160001F92CDB7DEB7182F289880E769830E94C9
:100170008700812F0E948700289A85E38A95F1F7EE
:100180000000289882E70E9487006981862F0E94DC
:100190008700289A0F90DF91CF911F910895EF92D9
:1001A000FF921F93CF93DF931F92CDB7DEB7182F27
:1001B0007B01289880E749830E948700812F0E9455
:1001C0008700289A85E38A95F1F70000289882E74E
:1001D0000E9487004981642FC7010E948C00289AE1
:1001E0000F90DF91CF911F91FF90EF9008959C01A8
:1001F000265B3F4F8659934E6FEF16C06193E4170D
:10020000F507E1F7A901495151096193E417F50791
:10021000E1F76193E217F307E1F710829F01255B95
:100220003F4F2817390739F0F901EA54F109A901BC
:1002300041535109E3CF0895E1E8F0E08081826005
:1002400080838FE19EE40197F1F700C00000289AB7
:100250008FE39CE90197F1F700C00000289A2C9ADF
:100260005C9A8FE19EE40197F1F700C000005C9872
:100270008FE19EE40197F1F700C000005C9A8FE1E6
:100280009EE40197F1F700C000000895FFCF85E3D9
:100290008A95F1F7000085E38A95F1F7000008954B
:1002A0000E9460000E946B000E947000809181009B
:0C02B000887F80938100FFCFF894FFCF7F
:00000001FF
