:1000000045C0000060C000005EC000005CC0000091
:100010005AC0000058C0000056C0000054C0000084
:1000200052C0000050C000004EC000004CC0000094
:1000300066C0000048C0000046C0000044C0000088
:1000400042C0000040C000003EC000003CC00000B4
:100050003AC0000038C0000036C0000034C00000C4
:1000600032C0000030C000002EC000002CC00000D4
:100070002AC0000028C0000026C0000024C00000E4
:1000800022C0000020C000001EC0000011241FBEBE
:10009000CFEFD0E1DEBFCDBF11E0A0E0B1E0E2E5FF
:1000A000F7E000E00BBF02C007900D92A238B10745
:1000B000D9F711E0A2E8B1E001C01D92A338B10761
:1000C000E1F729D044C39CCF1ABA87B3876087BBB6
:1000D000BB98BF98BD9ABC9ABE9A8FEF84BB8B9A8F
:1000E0008A98149A119A089580E48FBD89E08EBD94
:1000F00088E290E09BBD8ABD80E187BF08951F9292
:100100000F920FB60F9211241DBC1CBC0F900FBE96
:100110000F901F9018950F931F93CF93DF93D4DF09
:10012000F5D0E2DF60E076E980E090E0AFD0C79AFA
:100130008FE39CE90197F1F700C0000080E091E0B7
:1001400060E1C6D08EB5887F8EBD78941092820112
:1001500006E014E0D3E0C1E080918201833018F41E
:10016000813078F407C08430A1F0843070F086309C
:10017000A9F786C081E191E063E1AAD0C093820132
:10018000EBCF3CD1D0938201E7CF6BD110938201AA
:10019000E3CF8FEF45D28FEF93ECA9E081509040F1
:1001A000A040E1F700C000008FEF93ECA9E0815080
:1001B0009040A040E1F700C000008FEF97EEA3E071
:1001C00081509040A040E1F700C000008FEF28D29E
:1001D0008FEF93ECA9E081509040A040E1F700C080
:1001E00000008FEF93ECA9E081509040A040E1F730
:1001F00000C000008FEF97EEA3E081509040A04038
:10020000E1F700C000008AEA0BD28FEF93ECA9E07F
:1002100081509040A040E1F700C000008FEF93ECC8
:10022000A9E081509040A040E1F700C000008FEFAE
:1002300097EEA3E081509040A040E1F700C000009D
:100240008AEAEED18FEF93ECA9E081509040A04074
:10025000E1F700C000008FEF93ECA9E081509040DF
:10026000A040E1F700C000008FEF97EEA3E08150BF
:100270009040A040E1F700C00000009382016CCFE5
:1002800085E291E064E024D0DCD166CF9B01AC0133
:1002900082E080939B0088E180939A0086E08093BF
:1002A0009D0060E079E08DE390E02FD22150304056
:1002B0004040504056954795379527952093990093
:1002C000089590919B0095FFFCCF80939C0008952A
:1002D000EF92FF921F93DF93CF930F92CDB7DEB7CC
:1002E000182F412F592F7A0106C0F70181917F0104
:1002F0006983E7DF69818E2D811B8617B0F30F902C
:10030000CF91DF911F91FF90EF90089580E58DB917
:1003100081E08EB908958FB9779BFECF0895EF9253
:10032000FF921F93DF93CF930F92CDB7DEB7182FB5
:10033000412F592F7A0106C0F70181917F0169830E
:10034000EADF69818E2D811B8617B0F30F90CF9164
:10035000DF911F91FF90EF90089585E08A95F1F766
:10036000000086B380780895CF93DF93C82FD62FEF
:10037000F4DF8823E9F7C09A85E38A95F1F7000056
:10038000C09880E7C8DF8C2FC6DFE7DF8823E9F756
:10039000C09A85E38A95F1F70000C09882E7BBDF39
:1003A0008D2FB9DFC09ADF91CF9108950F931F93DE
:1003B000CF93DF93182FEB01042FCFDF8823E9F7CA
:1003C000C09A85E38A95F1F70000C09880E7A3DF23
:1003D000812FA1DFC2DF8823E9F7C09A85E38A95E0
:1003E000F1F70000C09882E796DFCE01602F97DF1B
:1003F000C09ADF91CF911F910F9108958AE291E009
:100400006DE066DF1C98C6981998C498C098C1988A
:10041000C2988EB581608EBD8FE19EE40197F1F7A1
:1004200000C00000C09A8FE39CE90197F1F700C07B
:100430000000C09AC49A1C9A8FE19EE40197F1F7DC
:1004400000C000001C988FE19EE40197F1F700C006
:1004500000001C9A8FE19EE40197F1F700C00000B4
:100460000895DF93CF93CDB7DEB72A970FB6F894F0
:10047000DEBF0FBECDBF88E391E069E029DF1B82BC
:100480001C821D821E8281E08F838FEF888780EE21
:1004900089871A8680ED89831A8282E491E065E07B
:1004A00017DF5BDF8823E9F788E491E069E010DF7C
:1004B00081E0BE016D5F7F4F48E078DF86E06FEF3F
:1004C00053DF87E06DE950DF88E060E04DDF89E0D1
:1004D000BE016F5F7F4F42E069DF84E063E044DF8D
:1004E0008FE19EE40197F1F700C0000083E061E036
:1004F0003BDF83E060E038DF85E061E035DF8FEFF0
:1005000096E7A1E081509040A040E1F700C00000D4
:100510008EB5887F8EBDC59885E063E025DF8FEFBF
:1005200096E7A1E081509040A040E1F700C00000B4
:1005300085E06FE019DF8FEF96E7A1E081509040F2
:10054000A040E1F700C0000082E064E20DDF82E538
:1005500091E06AE0BDDE2A960FB6F894DEBF0FBECA
:10056000CDBFCF91DF9108950F931F93CF93DF936A
:10057000D82FC62F84E063E0F7DEEFDE8823E9F7AB
:10058000C09A85E38A95F1F70000C09880E7C3DE42
:100590008AE0C1DEE2DE8823E9F7C09A85E38A9526
:1005A000F1F70000C09882E7B6DE19E1D6DE8823B5
:1005B000E9F78C2FB0DE1150C9F70D2F069506957F
:1005C0002D2F30E023703070220F331F40EC50E0AD
:1005D00002C0559547952A95E2F7142FD0E0BDDE6D
:1005E0008823E9F70D1711F4812F01C080E093DE15
:1005F000DF5FD831A1F7D9E1B0DE8823E9F78C2F8E
:100600008ADED150C9F780E086DEA7DE8823E9F7CD
:1006100082E06FE2A9DEDF91CF911F910F910895E3
:10062000CF93DF93C82F8DE691E064E151DED0E0F7
:100630008D2F6C2F99DFDF5FD036D1F7DF91CF910F
:10064000089585E5EDDF8FEF65E58EDF8FE798E3B1
:10065000A1E081509040A040E1F700C00000C498A4
:100660008FEF94E3ACE081509040A040E1F700C0F0
:100670000000C49A83E061E077DE82E065E074DE2A
:1006800085E06EE071DE85E062E06EDE84E06CE0C5
:100690006BDE8FE79AE1A6E081509040A040E1F741
:1006A00000C0000085E060E05FDE87E06DE05CDEBA
:1006B00084E060E559DE8FEF93EFA1E08150904038
:1006C000A040E1F700C0000084E060EA4DDE8FEF5B
:1006D00093EFA1E081509040A040E1F700C00000FE
:1006E00084E060E041DE1C98C698C498C198C29826
:1006F000C098199A8FEF92E5A7E081509040A040F2
:10070000E1F700C0000019980895A1E21A2EAA1B73
:10071000BB1BFD010DC0AA1FBB1FEE1FFF1FA217B1
:10072000B307E407F50720F0A21BB30BE40BF50BAE
:10073000661F771F881F991F1A9469F76095709537
:10074000809590959B01AC01BD01CF010895F8946F
:02075000FFCFD9
:1007520053595354454D205354415254494E470A1C
:10076200007374617465203D204352454154455FD6
:10077200494D470A006F66660A00737461727420FD
:10078200757020434F470A00434F4720696E6974D2
:100792000A00627573790A006E6F7420627573794C
:1007A2000A00696E697420646F6E650A0077726967
:1007B20074696E6720746F20434F470A007772692D
:1007C20074696E6720666978656420696D61676522
:0207D2000A001B
:00000001FF
