:100000000C944C000C946C000C946C000C946C00E0
:100010000C946C000C946C000C946C000C946C00B0
:100020000C946C000C946C000C946C000C946C00A0
:100030000C946C000C946C000C946C000C946C0090
:100040000C946C000C946C000C946C000C946C0080
:100050000C946C000C946C000C946C000C946C0070
:100060000C946C000C946C000C946C000C946C0060
:100070000C946C000C946C000C946C000C946C0050
:100080000C946C000C946C000C946C000C946C0040
:100090000C946C000C946C0011241FBECFEFD0E2C6
:1000A000DEBFCDBF11E0A0E0B1E0E2E6F1E000E0AC
:1000B0000BBF02C007900D92A030B107D9F71BBE4D
:1000C00011E0A0E0B1E001C01D92A230B107E1F75C
:1000D0000E94A8000C94AF000C94000011B884B1E9
:1000E000876084B92398259A8FEF87B9539A5298DD
:1000F000089580E98CBD81E08DBD0895E0E8F0E0D1
:1001000010828081806C8083808181608083E1E8BF
:10011000F0E08081806180831082808182608083B2
:1001200080E280936F0008958EBD0DB407FEFDCF71
:100130000895CF93DF932898EC0102C00E949400A9
:1001400089918823D9F7289A289ADF91CF91089529
:100150000E946E000E9479000E947E00FFCFF894FA
:02016000FFCFCF
:00000001FF
