:1000000045C0000060C000005EC000005CC0000091
:100010005AC0000058C0000056C0000054C0000084
:1000200052C0000050C000004EC000004CC0000094
:1000300066C0000048C0000046C0000044C0000088
:1000400042C0000040C000003EC000003CC00000B4
:100050003AC0000038C0000036C0000034C00000C4
:1000600032C0000030C000002EC000002CC00000D4
:100070002AC0000028C0000026C0000024C00000E4
:1000800022C0000020C000001EC0000011241FBEBE
:10009000CFEFD0E1DEBFCDBF11E0A0E0B1E0EAE5F7
:1000A000F7E000E00BBF02C007900D92A238B10745
:1000B000D9F711E0A2E8B1E001C01D92A338B10761
:1000C000E1F729D048C39CCF1ABA87B3876087BBB2
:1000D000BB98BF98BD9ABC9ABE9A8FEF84BB8B9A8F
:1000E0008A98149A119A089580E48FBD89E08EBD94
:1000F00088E290E09BBD8ABD80E187BF08951F9292
:100100000F920FB60F9211241DBC1CBC0F900FBE96
:100110000F901F9018950F931F93CF93DF93D4DF09
:10012000FAD0E2DF60E076E980E090E0AFD0C79AF5
:100130008FE39CE90197F1F700C0000080E091E0B7
:1001400060E1CCD08EB5887F8EBD7894109282010C
:1001500006E014E0D3E0C1E080918201833018F41E
:10016000813078F407C08430A1F0843070F086309C
:10017000A9F786C081E191E063E1B0D0C09382012C
:10018000EBCF41D1D0938201E7CF70D110938201A0
:10019000E3CF8FEF49D28FEF93ECA9E081509040ED
:1001A000A040E1F700C000008FEF93ECA9E0815080
:1001B0009040A040E1F700C000008FEF97EEA3E071
:1001C00081509040A040E1F700C000008FEF2CD29A
:1001D0008FEF93ECA9E081509040A040E1F700C080
:1001E00000008FEF93ECA9E081509040A040E1F730
:1001F00000C000008FEF97EEA3E081509040A04038
:10020000E1F700C000008AEA0FD28FEF93ECA9E07B
:1002100081509040A040E1F700C000008FEF93ECC8
:10022000A9E081509040A040E1F700C000008FEFAE
:1002300097EEA3E081509040A040E1F700C000009D
:100240008AEAF2D18FEF93ECA9E081509040A04070
:10025000E1F700C000008FEF93ECA9E081509040DF
:10026000A040E1F700C000008FEF97EEA3E08150BF
:100270009040A040E1F700C00000009382016CCFE5
:1002800085E291E064E02AD0E0D1FFCF0F931F9385
:100290009B01AC0182E080939B0088E180939A00EF
:1002A00086E080939D0060E079E08DE390E031D2BC
:1002B00089019A0101501040204030403695279521
:1002C00017950795009399001F910F9108959091AC
:1002D0009B0095FFFCCF80939C000895EF92FF92C6
:1002E0001F93CF93DF930F92CDB7DEB7182FE82E71
:1002F000F92E06C0F70181917F016983E8DF6981EA
:100300008E2D811B8617B0F30F90DF91CF911F9137
:10031000FF90EF90089580E58DB981E08EB9089542
:100320008FB9779BFECF0895EF92FF921F93DF93D3
:10033000CF930F92CDB7DEB7182F412F592F7A01E7
:1003400006C0F70181917F016983EADF69818E2D03
:10035000811B8617B0F30F90CF91DF911F91FF9013
:10036000EF90089585E08A95F1F7000086B38078D4
:100370000895CF93DF93C82FD62FF4DF8823E9F7B2
:10038000C09A85E38A95F1F70000C09880E7C8DF3E
:100390008C2FC6DFE7DF8823E9F7C09A85E38A95CB
:1003A000F1F70000C09882E7BBDF8D2FB9DFC09A5C
:1003B000DF91CF9108950F931F93CF93DF93182F61
:1003C000EB01042FCFDF8823E9F7C09A85E38A95F4
:1003D000F1F70000C09880E7A3DF812FA1DFC2DF23
:1003E0008823E9F7C09A85E38A95F1F70000C09861
:1003F00082E796DFCE01602F97DFC09ADF91CF9121
:100400001F910F9108958AE291E06DE067DF1C98DB
:10041000C6981998C498C098C198C2988EB5816042
:100420008EBD8FE19EE40197F1F700C00000C09AF5
:100430008FE39CE90197F1F700C00000C09AC49ACD
:100440001C9A8FE19EE40197F1F700C000001C9810
:100450008FE19EE40197F1F700C000001C9A8FE144
:100460009EE40197F1F700C000000895DF93CF9359
:10047000CDB7DEB72A970FB6F894DEBF0FBECDBF5B
:1004800088E391E069E02ADF1B821C821D821E82C4
:1004900081E08F838FEF888780EE89871A8680EDD1
:1004A00089831A8282E491E065E018DF5BDF8823AC
:1004B000E9F788E491E069E011DF81E0BE016D5F5A
:1004C0007F4F48E078DF86E06FEF53DF87E06DE92C
:1004D00050DF88E060E04DDF89E0BE016F5F7F4F55
:1004E00042E069DF84E063E044DF8FE19EE401974E
:1004F000F1F700C0000083E061E03BDF83E060E0F3
:1005000038DF85E061E035DF8FEF96E7A1E08150CD
:100510009040A040E1F700C000008EB5887F8EBDFE
:10052000C59885E063E025DF8FEF96E7A1E0815075
:100530009040A040E1F700C0000085E06FE019DFC7
:100540008FEF96E7A1E081509040A040E1F700C016
:10055000000082E064E20DDF82E591E06AE0BEDE49
:100560002A960FB6F894DEBF0FBECDBFCF91DF91B4
:1005700008950F931F93CF93DF93D82FC62F84E056
:1005800063E0F7DEEFDE8823E9F7C09A85E38A951A
:10059000F1F70000C09880E7C3DE8AE0C1DEE2DE4A
:1005A0008823E9F7C09A85E38A95F1F70000C0989F
:1005B00082E7B6DE19E1D6DE8823E9F78C2FB0DEBC
:1005C0001150C9F70D2F069506952D2F30E0237099
:1005D0003070220F331F40EC50E002C05595479514
:1005E0002A95E2F7142FD0E0BDDE8823E9F70D1736
:1005F00011F4812F95DE80E093DEDF5FD931A1F722
:10060000B1DE8823E9F78C2F8BDED150C9F780E06B
:1006100087DEA8DE8823E9F782E06FE2AADEDF91B9
:10062000CF911F910F910895CF93DF93C82F8DE63F
:1006300091E064E153DED0E08D2F6C2F9ADFDF5F15
:10064000D036D1F7DF91CF91089585E5EDDF8FEFBB
:1006500065E58FDF8FE798E3A1E081509040A040EF
:10066000E1F700C00000C4988FEF94E3ACE0815044
:100670009040A040E1F700C00000C49A83E061E030
:1006800078DE82E065E075DE85E06EE072DE85E0B2
:1006900062E06FDE84E06CE06CDE8FE79AE1A6E05A
:1006A00081509040A040E1F700C0000085E060E08C
:1006B00060DE87E06DE05DDE84E060E55ADE8FEFAE
:1006C00093EFA1E081509040A040E1F700C000000E
:1006D00084E060EA4EDE8FEF93EFA1E0815090401E
:1006E000A040E1F700C0000084E060E042DE1C981A
:1006F000C698C498C198C298C098199A8FEF92E58D
:10070000A7E081509040A040E1F700C00000199898
:100710000895A1E21A2EAA1BBB1BFD010DC0AA1F42
:10072000BB1FEE1FFF1FA217B307E407F50720F05A
:10073000A21BB30BE40BF50B661F771F881F991FD5
:100740001A9469F760957095809590959B01AC011E
:0A075000BD01CF010895F894FFCF1A
:10075A0053595354454D205354415254494E470A14
:10076A00007374617465203D204352454154455FCE
:10077A00494D470A006F66660A00737461727420F5
:10078A00757020434F470A00434F4720696E6974CA
:10079A000A00627573790A006E6F74206275737944
:1007AA000A00696E697420646F6E650A007772695F
:1007BA0074696E6720746F20434F470A0077726925
:1007CA0074696E6720666978656420696D6167651A
:0207DA000A0013
:00000001FF
