:1000000045C0000061C000005FC000005DC000008E
:100010005BC0000059C0000057C0000055C0000080
:1000200053C0000051C000004FC000004DC0000090
:100030008DC0000049C0000047C0000045C000005E
:1000400043C0000041C000003FC000003DC00000B0
:100050003BC0000039C0000037C0000035C00000C0
:1000600033C0000031C000002FC000002DC00000D0
:100070002BC0000029C0000027C0000025C00000E0
:1000800023C0000021C000001FC0000011241FBEBB
:10009000CFEFD0E1DEBFCDBF11E0A0E0B1E0E6E3FD
:1000A000F5E000E00BBF02C007900D92A637B10744
:1000B000D9F71BBE16E5A6E7B1E001C01D92A73F28
:1000C000B107E1F74FD035C29BCF1ABA87B387602B
:1000D00087BBBB98BF98BD9ABC9ABE9A8FEF84BB72
:1000E0008B9A8A988C9A089580E48FBD89E08EBDA2
:1000F00088E290E09BBD8ABD80E187BF08959C01A6
:1001000050E620C061938150E9F780E090E0F9016A
:10011000E80FF91F418F019689319105C1F780E001
:1001200090E0F901E80FF91F62AB01968931910562
:10013000C1F7F901E55BFF4F10825150205A3F4F44
:10014000552319F0F90189E1DDCF08951F920F922F
:100150000FB60F9211241DBC1CBC0F900FBE0F9048
:100160001F901895B2DF88D0BFDF60E076E980E0AD
:1001700090E03DD08FE39CE90197F1F700C00000CB
:1001800080E091E060E15BD08EB5887F8EBD789491
:100190001092760106E014E0D3E0C1E08091760190
:1001A000833018F48130A0F407C08430C9F0843063
:1001B00098F08630A9F71AC081E191E063E13FD061
:1001C00087EF9DE16FEF4FEF9ADFC0937601E6CFA7
:1001D000BBD0D0937601E2CFE3D010937601DECF8F
:1001E00087EF9DE162D100937601D8CFFFCF0F93C7
:1001F0001F939B01AC0182E080939B0088E1809378
:100200009A0086E080939D0060E079E08DE390E0C5
:100210006ED189019A01015010402040304036953E
:10022000279517950795009399001F910F910895B1
:1002300090919B0095FFFCCF80939C000895EF92D6
:10024000FF921F93CF93DF930F92CDB7DEB7182F96
:10025000E82EF92E06C0F70181917F016983E8DF5E
:1002600069818E2D811B8617B0F30F90DF91CF919E
:100270001F91FF90EF90089580E58DB981E08EB9D0
:1002800008958FB9779BFECF0895EF92FF921F9349
:10029000CF93DF930F92CDB7DEB7182FE82EF92E4C
:1002A00006C0F70181917F016983EBDF69818E2DA3
:1002B000811B8617B0F30F90DF91CF911F91FF90B4
:1002C000EF9008951F93CF93DF930F92CDB7DEB7D2
:1002D000182FC09880E76983D4DF812FD2DFC09ABE
:1002E00085E38A95F1F70000C09882E7CADF69814B
:1002F000862FC7DFC09A0F90DF91CF911F9108958D
:10030000EF92FF921F93CF93DF930F92CDB7DEB79B
:10031000182F7B01C09880E74983B3DF812FB1DFBD
:10032000C09A85E38A95F1F70000C09882E7A9DFBB
:10033000C7014981642FA9DFC09A0F90DF91CF9147
:100340001F91FF90EF90089585E291E06DE077DFD7
:100350008EB581608EBD8FE19EE40197F1F700C0FC
:100360000000C09A8FE39CE90197F1F700C00000FC
:10037000C09AC49A949A8FE19EE40197F1F700C065
:10038000000094988FE19EE40197F1F700C000000F
:10039000949A8FE19EE40197F1F700C00000089560
:1003A000CF93DF93CDB7DEB72A970FB6F894DEBFB1
:1003B0000FBECDBF83E391E069E041DF1B821C8269
:1003C0001D821E8281E08F838FEF888780EE898770
:1003D0001A8680ED89831A828DE391E065E02FDF34
:1003E000B799FECF83E491E069E029DF81E0BE01A7
:1003F0006D5F7F4F48E084DF8DE491E06CE01FDFAC
:1004000086E06FEF5FDF87E06DE95CDF88E060E04A
:1004100059DF89E0BE016F5F7F4F42E071DF84E00A
:1004200063E050DF8FE19EE40197F1F700C0000028
:1004300083E061E047DF83E060E044DF85E061E086
:1004400041DF8FEF96E7A1E081509040A040E1F7B7
:1004500000C000008EB5887F8EBD85E063E032DF8E
:100460008FEF96E7A1E081509040A040E1F700C0F7
:10047000000085E06FE026DF8FEF96E7A1E0815076
:100480009040A040E1F700C0000082E064E21ADF83
:100490008AE591E06AE0D3DE2A960FB6F894DEBFD3
:1004A0000FBECDBFDF91CF9108950F931F93CF93D0
:1004B000DF938C0185E691E06FE0C1DEC0E0D0E023
:1004C00084E063E0FFDEB8016C0F7D1F8AE04CE43E
:1004D00017DF82E06FE2F6DEC05ADF4F84E2C03001
:1004E000D80771F7DF91CF911F910F910895A1E285
:1004F0001A2EAA1BBB1BFD010DC0AA1FBB1FEE1F9E
:10050000FF1FA217B307E407F50720F0A21BB30BE8
:10051000E40BF50B661F771F881F991F1A9469F764
:1005200060957095809590959B01AC01BD01CF01C0
:060530000895F894FFCFCE
:1005360053595354454D205354415254494E470A3A
:10054600007374617465203D204352454154455FF4
:10055600494D470A00737461727420757020434FC9
:10056600470A00434F4720696E69740A0062757333
:10057600790A006E6F7420627573790A0063686188
:100586006E6E656C2073656C0A00696E6974206412
:100596006F6E650A0077726974696E6720746F20E2
:0605A600434F470A00006C
:00000001FF
