:1000000045C0000061C000005FC000005DC000008E
:100010005BC0000059C0000057C0000055C0000080
:1000200053C0000051C000004FC000004DC0000090
:1000300067C0000049C0000047C0000045C0000084
:1000400043C0000041C000003FC000003DC00000B0
:100050003BC0000039C0000037C0000035C00000C0
:1000600033C0000031C000002FC000002DC00000D0
:100070002BC0000029C0000027C0000025C00000E0
:1000800023C0000021C000001FC0000011241FBEBB
:10009000CFEFD0E1DEBFCDBF11E0A0E0B1E0EEE7F1
:1000A000F7E000E00BBF02C007900D92A238B10745
:1000B000D9F71BBE11E0A2E8B1E001C01D92A33840
:1000C000B107E1F729D059C39BCF1ABA87B387602C
:1000D00087BBBB98BF98BD9ABC9ABE9A8FEF84BB72
:1000E0008B9A8A98149A119A089580E48FBD89E0BA
:1000F0008EBD88E290E09BBD8ABD80E187BF0895F8
:100100001F920F920FB60F9211241DBC1CBC0F90B2
:100110000FBE0F901F9018950F931F93CF93DF93EF
:10012000D4DFF5D0E2DF60E076E980E090E0AFD0A8
:10013000C79A8FE39CE90197F1F700C0000080E0C7
:1001400091E060E1C6D08EB5887F8EBD7894109224
:10015000820106E014E0D3E0C1E0809182018330A7
:1001600018F4813078F407C08430A1F0843070F046
:100170008630A9F786C081E191E063E1AAD0C093FF
:100180008201EBCF3BD1D0938201E7CF6ED11093A8
:100190008201E3CF8FEF52D28FEF93ECA9E0815031
:1001A0009040A040E1F700C000008FEF93ECA9E081
:1001B00081509040A040E1F700C000008FEF97EE23
:1001C000A3E081509040A040E1F700C000008FEF15
:1001D00035D28FEF93ECA9E081509040A040E1F739
:1001E00000C000008FEF93ECA9E081509040A04048
:1001F000E1F700C000008FEF97EEA3E08150904040
:10020000A040E1F700C000008AEA18D28FEF93EC1B
:10021000A9E081509040A040E1F700C000008FEFBE
:1002200093ECA9E081509040A040E1F700C00000AD
:100230008FEF97EEA3E081509040A040E1F700C01F
:1002400000008AEAFBD18FEF93ECA9E08150904047
:10025000A040E1F700C000008FEF93ECA9E08150CF
:100260009040A040E1F700C000008FEF97EEA3E0C0
:1002700081509040A040E1F700C00000009382014F
:100280006CCF85E291E064E024D0E9D166CF9B0198
:10029000AC0182E080939B0088E180939A0086E025
:1002A00080939D0060E079E08DE390E044D221509E
:1002B00030404040504056954795379527952093BC
:1002C0009900089590919B0095FFFCCF80939C002E
:1002D0000895EF92FF921F93DF93CF930F92CDB7C4
:1002E000DEB7182F412F592F7A0106C0F7018191EF
:1002F0007F016983E7DF69818E2D811B8617B0F34B
:100300000F90CF91DF911F91FF90EF90089588E5B6
:100310008DB981E08EB908958FB9779BFECF08958E
:10032000EF92FF921F93CF93DF930F92CDB7DEB77B
:10033000182FE82EF92E06C0F70181917F016983FD
:10034000EBDF69818E2D811B8617B0F30F90DF9153
:10035000CF911F91FF90EF90089585E08A95F1F776
:10036000000086B380780895CF93DF93C82FD62FEF
:10037000F4DF8823E9F7C09A85E38A95F1F7000056
:10038000C09880E7C9DF8C2FC7DFE7DF8823E9F754
:10039000C09A85E38A95F1F70000C09882E7BCDF38
:1003A0008D2FBADFC09ADF91CF9108950F931F93DD
:1003B000CF93DF93182FEB01042FCFDF8823E9F7CA
:1003C000C09A85E38A95F1F70000C09880E7A4DF22
:1003D000812FA2DFC2DF8823E9F7C09A85E38A95DF
:1003E000F1F70000C09882E797DFCE01602F98DF19
:1003F000C09ADF91CF911F910F9108958AE291E009
:100400006DE067DF1C98C6981998C498C098C19889
:10041000C29880E081DF80E07FDF8EB581608EBD95
:100420008FE19EE40197F1F700C00000C09A8FE3CE
:100430009CE90197F1F700C00000C09AC49A1C9A89
:100440008FE19EE40197F1F700C000001C988FE156
:100450009EE40197F1F700C000001C9A8FE19EE432
:100460000197F1F700C000000895CF93DF93CDB757
:10047000DEB72A970FB6F894DEBF0FBECDBF88E374
:1004800091E069E026DF1B821C821D821E8281E0D2
:100490008F838FEF888780EE89871A8680ED898326
:1004A0001A8282E491E065E014DF57DF8823E9F7E0
:1004B00088E491E069E00DDF81E0BE016D5F7F4F70
:1004C00048E074DF86E06FEF4FDF87E06DE94CDFD7
:1004D00088E060E049DF89E0BE016F5F7F4F42E066
:1004E00065DF84E063E040DF8FE19EE40197F1F790
:1004F00000C0000083E061E037DF83E060E034DFCC
:1005000085E061E031DF8FEF96E7A1E08150904018
:10051000A040E1F700C000008EB5887F8EBDC59871
:1005200085E063E021DF8FEF96E7A1E08150904006
:10053000A040E1F700C0000085E06FE015DF8FEF1D
:1005400096E7A1E081509040A040E1F700C0000094
:1005500082E064E209DF80E0DFDE80E0DDDE82E56C
:1005600091E06AE0B6DE2A960FB6F894DEBF0FBEC1
:10057000CDBFDF91CF9108950F931F93CF93DF935A
:10058000D82FC62F84E063E0EFDEE7DE8823E9F7AB
:10059000C09A85E38A95F1F70000C09880E7BCDE39
:1005A0008AE0BADEDADE8823E9F7C09A85E38A9525
:1005B000F1F70000C09882E7AFDE19E1CEDE8823B4
:1005C000E9F78C2FA9DE1150C9F70D2F0695069576
:1005D0002D2F30E023703070220F331F40EC50E09D
:1005E00002C0559547952A95E2F7142FD0E0B5DE65
:1005F0008823E9F70D1711F4812F01C080E08CDE0C
:10060000DF5FD831A1F7D9E1A8DE8823E9F78C2F85
:1006100083DE8C2F57DED150B9F780E07DDE9DDE82
:100620008823E9F782E06FE29FDE80E075DE80E0FC
:1006300073DEDF91CF911F910F910895CF93DF93D8
:10064000C82F8DE691E064E144DED0E08D2F6C2F61
:1006500093DFDF5FD036D1F7DF91CF91089585E545
:10066000EDDF8FEF65E588DF8FE798E3A1E081504C
:100670009040A040E1F700C00000C4988FEF94E3E1
:10068000ACE081509040A040E1F700C00000C49A67
:1006900080E042DE80E040DE83E061E065DE82E013
:1006A00065E062DE85E06EE05FDE85E062E05CDEF4
:1006B00084E06CE059DE8FE79AE1A6E0815090403B
:1006C000A040E1F700C0000085E060E04DDE87E07B
:1006D0006DE04ADE84E060E547DE8FEF93EFA1E056
:1006E00081509040A040E1F700C0000084E060EA43
:1006F0003BDE8FEF93EFA1E081509040A040E1F707
:1007000000C0000084E060E02FDE1C98C698C4980A
:1007100080E002DE80E000DEC198C298C098199A9D
:100720008FEF92E5A7E081509040A040E1F700C034
:10073000000019980895A1E21A2EAA1BBB1BFD0107
:100740000DC0AA1FBB1FEE1FFF1FA217B307E407B0
:10075000F50720F0A21BB30BE40BF50B661F771F08
:10076000881F991F1A9469F76095709580959095E8
:0E0770009B01AC01BD01CF010895F894FFCFAD
:10077E0053595354454D205354415254494E470AF0
:10078E00007374617465203D204352454154455FAA
:10079E00494D470A006F66660A00737461727420D1
:1007AE00757020434F470A00434F4720696E6974A6
:1007BE000A00627573790A006E6F74206275737920
:1007CE000A00696E697420646F6E650A007772693B
:1007DE0074696E6720746F20434F470A0077726901
:1007EE0074696E6720666978656420696D616765F6
:0207FE000A00EF
:00000001FF
