:1000000045C0000060C000005EC000005CC0000091
:100010005AC0000058C0000056C0000054C0000084
:1000200052C0000050C000004EC000004CC0000094
:1000300066C0000048C0000046C0000044C0000088
:1000400042C0000040C000003EC000003CC00000B4
:100050003AC0000038C0000036C0000034C00000C4
:1000600032C0000030C000002EC000002CC00000D4
:100070002AC0000028C0000026C0000024C00000E4
:1000800022C0000020C000001EC0000011241FBEBE
:10009000CFEFD0E1DEBFCDBF11E0A0E0B1E0EAE7F5
:1000A000F7E000E00BBF02C007900D92A238B10745
:1000B000D9F711E0A2E8B1E001C01D92A338B10761
:1000C000E1F729D058C39CCF1ABA87B3876087BBA2
:1000D000BB98BF98BD9ABC9ABE9A8FEF84BB8B9A8F
:1000E0008A98149A119A089580E48FBD89E08EBD94
:1000F00088E290E09BBD8ABD80E187BF08951F9292
:100100000F920FB60F9211241DBC1CBC0F900FBE96
:100110000F901F9018950F931F93CF93DF93D4DF09
:10012000F5D0E2DF60E076E980E090E0AFD0C79AFA
:100130008FE39CE90197F1F700C0000080E091E0B7
:1001400060E1C6D08EB5887F8EBD78941092820112
:1001500006E014E0D3E0C1E080918201833018F41E
:10016000813078F407C08430A1F0843070F086309C
:10017000A9F786C081E191E063E1AAD0C093820132
:10018000EBCF3CD1D0938201E7CF6FD110938201A6
:10019000E3CF8FEF51D28FEF93ECA9E081509040E5
:1001A000A040E1F700C000008FEF93ECA9E0815080
:1001B0009040A040E1F700C000008FEF97EEA3E071
:1001C00081509040A040E1F700C000008FEF34D292
:1001D0008FEF93ECA9E081509040A040E1F700C080
:1001E00000008FEF93ECA9E081509040A040E1F730
:1001F00000C000008FEF97EEA3E081509040A04038
:10020000E1F700C000008AEA17D28FEF93ECA9E073
:1002100081509040A040E1F700C000008FEF93ECC8
:10022000A9E081509040A040E1F700C000008FEFAE
:1002300097EEA3E081509040A040E1F700C000009D
:100240008AEAFAD18FEF93ECA9E081509040A04068
:10025000E1F700C000008FEF93ECA9E081509040DF
:10026000A040E1F700C000008FEF97EEA3E08150BF
:100270009040A040E1F700C00000009382016CCFE5
:1002800085E291E064E024D0E8D1FFCF9B01AC018E
:1002900082E080939B0088E180939A0086E08093BF
:1002A0009D0060E079E08DE390E043D22150304042
:1002B0004040504056954795379527952093990093
:1002C000089590919B0095FFFCCF80939C0008952A
:1002D000EF92FF921F93DF93CF930F92CDB7DEB7CC
:1002E000182F412F592F7A0106C0F70181917F0104
:1002F0006983E7DF69818E2D811B8617B0F30F902C
:10030000CF91DF911F91FF90EF90089588E58DB90F
:1003100081E08EB908958FB9779BFECFD2CFEF924F
:10032000FF921F93DF93CF930F92CDB7DEB7182FB5
:10033000412F592F7A0106C0F70181917F0169830E
:10034000EADF69818E2D811B8617B0F30F90CF9164
:10035000DF911F91FF90EF90089585E08A95F1F766
:10036000000086B380780895CF93DF93C82FD62FEF
:10037000F4DF8823E9F7C09A85E38A95F1F7000056
:10038000C09880E7C8DF8C2FC6DFE7DF8823E9F756
:10039000C09A85E38A95F1F70000C09882E7BBDF39
:1003A0008D2FB9DFC09ADF91CF9108950F931F93DE
:1003B000CF93DF93182FEB01042FCFDF8823E9F7CA
:1003C000C09A85E38A95F1F70000C09880E7A3DF23
:1003D000812FA1DFC2DF8823E9F7C09A85E38A95E0
:1003E000F1F70000C09882E796DFCE01602F97DF1B
:1003F000C09ADF91CF911F910F9108958AE291E009
:100400006DE066DF1C98C6981998C498C098C1988A
:10041000C29880E080DF80E07EDF8EB581608EBD97
:100420008FE19EE40197F1F700C00000C09A8FE3CE
:100430009CE90197F1F700C00000C09AC49A1C9A89
:100440008FE19EE40197F1F700C000001C988FE156
:100450009EE40197F1F700C000001C9A8FE19EE432
:100460000197F1F700C000000895DF93CF93CDB757
:10047000DEB72A970FB6F894DEBF0FBECDBF88E374
:1004800091E069E025DF1B821C821D821E8281E0D3
:100490008F838FEF888780EE89871A8680ED898326
:1004A0001A8282E491E065E013DF57DF8823E9F7E1
:1004B00088E491E069E00CDF81E0BE016D5F7F4F71
:1004C00048E074DF86E06FEF4FDF87E06DE94CDFD7
:1004D00088E060E049DF89E0BE016F5F7F4F42E066
:1004E00065DF84E063E040DF8FE19EE40197F1F790
:1004F00000C0000083E061E037DF83E060E034DFCC
:1005000085E061E031DF8FEF96E7A1E08150904018
:10051000A040E1F700C000008EB5887F8EBDC59871
:1005200085E063E021DF8FEF96E7A1E08150904006
:10053000A040E1F700C0000085E06FE015DF8FEF1D
:1005400096E7A1E081509040A040E1F700C0000094
:1005500082E064E209DF80E0DEDE80E0DCDE82E56E
:1005600091E06AE0B5DE2A960FB6F894DEBF0FBEC2
:10057000CDBFCF91DF9108950F931F93CF93DF935A
:10058000D82FC62F84E063E0EFDEE7DE8823E9F7AB
:10059000C09A85E38A95F1F70000C09880E7BBDE3A
:1005A0008AE0B9DEDADE8823E9F7C09A85E38A9526
:1005B000F1F70000C09882E7AEDE19E1CEDE8823B5
:1005C000E9F78C2FA8DE1150C9F70D2F0695069577
:1005D0002D2F30E023703070220F331F40EC50E09D
:1005E00002C0559547952A95E2F7142FD0E0B5DE65
:1005F0008823E9F70D1711F4812F01C080E08BDE0D
:10060000DF5FD831A1F7D9E1A8DE8823E9F78C2F85
:1006100082DED150C9F780E07EDE9FDE8823E9F7D5
:1006200082E06FE2A1DE80E076DE80E074DEDF91C2
:10063000CF911F910F910895CF93DF93C82F8DE62F
:1006400091E064E145DED0E08D2F6C2F95DFDF5F18
:10065000D036D1F7DF91CF91089585E5EDDF8FEFAB
:1006600065E58ADF8FE798E3A1E081509040A040E4
:10067000E1F700C00000C4988FEF94E3ACE0815034
:100680009040A040E1F700C00000C49A80E043DE43
:1006900080E041DE83E061E067DE82E065E064DE09
:1006A00085E06EE061DE85E062E05EDE84E06CE0C5
:1006B0005BDE8FE79AE1A6E081509040A040E1F731
:1006C00000C0000085E060E04FDE87E06DE04CDEBA
:1006D00084E060E549DE8FEF93EFA1E08150904028
:1006E000A040E1F700C0000084E060EA3DDE8FEF4B
:1006F00093EFA1E081509040A040E1F700C00000DE
:1007000084E060E031DE1C98C698C49880E003DE87
:1007100080E001DEC198C298C098199A8FEF92E5E7
:10072000A7E081509040A040E1F700C00000199878
:100730000895A1E21A2EAA1BBB1BFD010DC0AA1F22
:10074000BB1FEE1FFF1FA217B307E407F50720F03A
:10075000A21BB30BE40BF50B661F771F881F991FB5
:100760001A9469F760957095809590959B01AC01FE
:0A077000BD01CF010895F894FFCFFA
:10077A0053595354454D205354415254494E470AF4
:10078A00007374617465203D204352454154455FAE
:10079A00494D470A006F66660A00737461727420D5
:1007AA00757020434F470A00434F4720696E6974AA
:1007BA000A00627573790A006E6F74206275737924
:1007CA000A00696E697420646F6E650A007772693F
:1007DA0074696E6720746F20434F470A0077726905
:1007EA0074696E6720666978656420696D616765FA
:0207FA000A00F3
:00000001FF
