:1000000045C0000061C000005FC000005DC000008E
:100010005BC0000059C0000057C0000055C0000080
:1000200053C0000051C000004FC000004DC0000090
:10003000C8C1000049C0000047C0000045C0000022
:1000400043C0000041C000003FC000003DC00000B0
:100050003BC0000039C0000037C0000035C00000C0
:1000600033C0000031C000002FC000002DC00000D0
:100070002BC0000029C0000027C0000025C00000E0
:1000800023C0000021C000001FC0000011241FBEBB
:10009000CFEFD0E1DEBFCDBF11E0A0E0B1E0EAE2FA
:1000A000F5E000E00BBF02C007900D92AE34B1073F
:1000B000D9F71BBE16E5AEE4B1E001C01D92AF3C1E
:1000C000B107E1F78AD12FC29BCF1ABA87B38760F5
:1000D00087BBBB98BF98BD9ABC9ABE9A8FEF84BB72
:1000E0008B9A8A988C9A089580E58DB981E08EB9B3
:1000F000089580E48FBD89E08EBD88E290E09BBDCD
:100100008ABD80E187BF08958FB9779BFECF0895A0
:10011000EF92FF921F93CF93DF930F92CDB7DEB78D
:10012000182FE82EF92E06C0F70181917F0169830F
:10013000EBDF69818E2D811B8617B0F30F90DF9165
:10014000CF911F91FF90EF9008951F93CF93DF936E
:100150000F92CDB7DEB7182FC09880E76983D4DF40
:10016000812FD2DFC09A85E38A95F1F70000C0980D
:1001700082E7CADF6981862FC7DFC09A0F90DF91BF
:10018000CF911F910895EF92FF921F93CF93DF932A
:100190000F92CDB7DEB7182F7B01C09880E7498357
:1001A000B3DF812FB1DFC09A85E38A95F1F70000B4
:1001B000C09882E7A9DFC7014981642FA9DFC09AEF
:1001C0000F90DF91CF911F91FF90EF9008959C01C8
:1001D00050E620C061938150E9F780E090E0F9019A
:1001E000E80FF91F418F019689319105C1F780E031
:1001F00090E0F901E80FF91F62AB01968931910592
:10020000C1F7F901E55BFF4F10825150205A3F4F73
:10021000552319F0F90189E1DDCF089580E091E0DF
:100220006DE042D18EB581608EBD8FE19EE4019775
:10023000F1F700C00000C09A8FE39CE90197F1F745
:1002400000C00000C09AC49A949A8FE19EE401977E
:10025000F1F700C0000094988FE19EE40197F1F758
:1002600000C00000949A8FE19EE40197F1F700C06E
:1002700000000895CF93DF93CDB7DEB72A970FB66E
:10028000F894DEBF0FBECDBF8EE091E069E00CD1E7
:100290001B821C821D821E8281E08F838FEF8887E4
:1002A00080EE89871A8680ED89831A8288E191E041
:1002B00065E0FAD0B799FECF8EE191E069E0F4D025
:1002C00081E0BE016D5F7F4F48E05DDF88E291E035
:1002D0006CE0EAD086E06FEF38DF87E06DE935DF6C
:1002E00088E060E032DF89E0BE016F5F7F4F42E06F
:1002F0004ADF84E063E029DF8FE19EE40197F1F7B4
:1003000000C0000083E061E020DF83E060E01DDFEB
:1003100085E061E01ADF8FEF96E7A1E08150904021
:10032000A040E1F700C000008EB5887F8EBD85E05B
:1003300063E00BDF8FEF96E7A1E081509040A04093
:10034000E1F700C0000085E06FE0FFDE8FEF96E789
:10035000A1E081509040A040E1F700C0000082E0A1
:1003600064E2F3DE85E391E06AE09ED02A960FB660
:10037000F894DEBF0FBECDBFDF91CF9108950F93EC
:100380001F93CF93DF938C0180E491E06DE08CD0DC
:10039000C0E0D0E084E063E0D8DEB8016C0F7D1FE0
:1003A0008AE04CE4F0DE82E06FE2CFDEC05ADF4F3D
:1003B00084E2C030D80771F7DF91CF911F910F9180
:1003C00008951F920F920FB60F9211241DBC1CBCF2
:1003D0000F900FBE0F901F90189577DE85DE89DE97
:1003E00060E076E980E090E037D078948FEF93EC8E
:1003F000A9E081509040A040E1F700C000001092B9
:100400004E0181E64AD006E014E0D3E0C1E08091DD
:100410004E01833018F4813080F407C08430A9F095
:10042000843078F08630A9F716C08FEC9DE16FEF2D
:100430004FEFCDDEC0934E01EACFF0DED0934E01F8
:10044000E6CF18DF10934E01E2CF8FEC9DE197DFEE
:1004500000934E01DCCFFFCF0F931F939B01AC01A4
:1004600082E080939B0088E180939A0086E08093ED
:100470009D0060E079E08DE390E033D089019A013E
:10048000015010402040304036952795179507952C
:10049000009399001F910F91089590919B0095FFF3
:1004A000FCCF80939C000895EF92FF921F93CF930F
:1004B000DF930F92CDB7DEB7182FE82EF92E06C0C6
:1004C000F70181917F016983E8DF69818E2D811BAE
:1004D0008617B0F30F90DF91CF911F91FF90EF90AF
:1004E0000895A1E21A2EAA1BBB1BFD010DC0AA1F75
:1004F000BB1FEE1FFF1FA217B307E407F50720F08D
:10050000A21BB30BE40BF50B661F771F881F991F07
:100510001A9469F760957095809590959B01AC0150
:0A052000BD01CF010895F894FFCF4C
:10052A00737461727420757020434F470A00434FF9
:10053A004720696E69740A00627573790A006E6FE2
:10054A007420627573790A006368616E6E656C2047
:10055A0073656C0A00696E697420646F6E650A00BF
:0E056A00777269746520746F20434F470A0052
:00000001FF
