:100000000C9446000C9465000C9465000C946500FB
:100010000C9465000C9465000C9465000C946500CC
:100020000C9465000C9465000C9465000C946500BC
:100030000C9465000C9465000C9465000C946500AC
:100040000C9465000C9465000C9465000C9465009C
:100050000C9465000C9465000C9465000C9465008C
:100060000C9465000C9465000C9465000C9465007C
:100070000C9465000C9465000C9465000C9465006C
:100080000C9465000C9465000C94650011241FBE4F
:10009000CFEFD0E1DEBFCDBF11E0A0E0B1E0E2E8FC
:1000A000F4E000E00BBF02C007900D92A231B1074F
:1000B000D9F711E0A2E1B1E001C01D92AB34B10764
:1000C000E1F70E9479000C943F020C940000E1E6F5
:1000D000F0E0808188608083E2E6F0E08081877FC5
:1000E000808387B3876087BBC09A80E58DB91EB8CF
:1000F0000895CF93DF930E9467000E9483010E94BE
:10010000D900809161008F778093610080916200B7
:10011000806880936200BF9A87B1876487B986B18F
:10012000876886B9C4E6D0E0369A349BFECF349A0D
:1001300084B195B16DEC70E00E94180260933701B4
:10014000709338018093390190933A01809139017D
:1001500090913A019C012C9FC0012D9F900D3C9FD6
:10016000900D11246DEC70E00E9418026093230141
:10017000709324018093250190932601809137018B
:1001800090913801843091054CF080912301909139
:1001900024018B35910514F0C79AC6CFC798C4CFF8
:1001A000E2E6F0E08081886080838081877F8083C1
:1001B00008951FB8779BFECF81E08FB9779BFECF64
:1001C0008091620088608093620080916200877FE6
:1001D000809362008FE39FE10197F1F700C0000078
:1001E00008951FB8779BFECF82E08FB9779BFECF33
:1001F0008091620088608093620080916200877FB6
:10020000809362008FE99FE00197F1F700C0000042
:1002100008951FB8779BFECF80EC8FB9779BFECFF8
:100220008091620088608093620080916200877F85
:10023000809362008FE99FE00197F1F700C0000012
:10024000089580E190E041E030E24FB9779BFECF26
:100250003FB9779BFECF2091620028602093620017
:1002600020916200277F20936200EFE9FFE0319741
:10027000F1F700C00000019741F7089591E09FB9A0
:10028000779BFECF8FB9779BFECF8091620088600D
:100290008093620080916200877F809362008FE983
:1002A0009FE00197F1F700C00000089540E050E0A2
:1002B00020E030E061E06FB9779BFECF480F591F17
:1002C000FA0140814FB9779BFECF409162004860B0
:1002D0004093620040916200477F40936200EFE8E4
:1002E000F1E03197F1F700C000002F5F3F4FA90107
:1002F000FC0101900020E9F7E81BF90B3297E217A7
:10030000F307C8F608958FE59AEE0197F1F700C05C
:10031000000083E090E030E31FB8779BFECF3FB949
:10032000779BFECF2091620028602093620020918D
:100330006200277F20936200EFE5FDE63197F1F739
:1003400000C00000019741F71FB8779BFECF88E3FC
:100350008FB9779BFECF80916200886080936200A6
:1003600080916200877F809362008FE19EE4019715
:10037000F1F700C000001FB8779BFECF88E08FB96F
:10038000779BFECF809162008860809362008091AD
:100390006200877F80936200EFE1FEE43197F1F71E
:1003A00000C000001FB8779BFECF81E08FB9779B1C
:1003B000FECF80916200886080936200809162002D
:1003C000877F809362008FE19EE40197F1F700C080
:1003D00000001FB8779BFECF86E08FB9779BFECFDA
:1003E0008091620088608093620080916200877FC4
:1003F00080936200EFE1FEE43197F1F700C0000066
:100400001FB8779BFECF8EE08FB9779BFECF809190
:10041000620088608093620080916200877F809391
:1004200062008FE19EE40197F1F700C0000008959B
:1004300097FB092E07260AD077FD04D00CD006D0F2
:1004400000201AF4709561957F4F0895F6F7909506
:1004500081959F4F0895AA1BBB1B51E107C0AA1F9E
:10046000BB1FA617B70710F0A61BB70B881F991F55
:100470005A95A9F780959095BC01CD010895F894FF
:02048000FFCFAC
:100482002A2A2A2D4C43445F546573742D2A2A2A42
:02049200000068
:00000001FF
